:020000040000FA
:020000002028B6
:02000800F829D5
:100040005C2A1930A100FA30A0000000A00B25287E
:10005000A10B232808006430A100FA30A0000000A2
:10006000A00B2F28A10B2D2808002B202B200800E7
:10007000352035202B2008003820382008000F308C
:10008000A00044287830A0000000A00B44280800FD
:100090002408A300A30DA30DA30D413023079F0047
:1000A0006430A000A00B52281F151F195528080006
:1000B000A801270E0F39A900093C031C6128303024
:1000C00062283730A907A808031D6A282908A80054
:1000D00027085A28080058202808A500582729086A
:1000E000A500582708006B202030A50058270800DD
:1000F0003008A024003E03198228A5005827B00A22
:100100003520782808000330A500582738205827C4
:100110003C200D30A5005827382058273C200430BB
:10012000A5005827382058273C200D30A500582717
:10013000382058273C2004308A00A830B0007820AE
:100140003C20AE30B00078203C20B530B0007820A4
:100150000030A400B120C230B00078203C203C2008
:100160000800BA200F301505D5070F303B05D7071B
:10017000E32008004C30CB000030A40048201E08CB
:10018000A7004B08840027088000CB0A9E3084001B
:100190000008A7004B08840027088000CB0AA40AA7
:1001A0002408053C0319A40A2408073C031DBE28A3
:1001B00008005308E9005208E8004D08EB004C081D
:1001C000EA00162108004C3084000008A7006B20CC
:1001D0002030A50004185827840A0408623C031D37
:1001E000E5280D30A50058270800BC016708E10785
:1001F00003183C143C1CFF28E00A0319BC146608D1
:10020000E0070318BC14BC1C0829DF0A03193C15BD
:100210006508DF0703183C153C1D1129DE0A031988
:10022000BC156408DE070318BC150800E101E001F5
:10023000DF01DE016908E7006808E600E501E40186
:100240006B08E3006A08E2001030A300E20CE30C44
:100250000318F520E70DE60DE50DE40DA30B2629A7
:100260000800DF21B1205608393C031C3B29023C21
:10027000031C85137429851756084E3C031C42291C
:10028000BB0174291508B7003820B1205008983CEC
:10029000031C4B295329150A0F3903197429150A10
:1002A0000F399500442915080F3903195A291503E8
:1002B0000F3995003820B1205608403C031C6429B2
:1002C00037080F3995007429BB01BB0A3820B120CB
:1002D0005608423C031C742915080F390319742968
:1002E00015030F39950066290800BA2050089D3C77
:1002F000031C872915080F390319942915030F3991
:100300009500BA2050089D3C031C94297A29150AAF
:100310000F3903199429150A0F399500BA2050088E
:100320009D3C031C872994290800BA205008D80056
:100330005108D90003104E0CB33C58020318DE29B3
:1003400015080F390319BC2915030F3995003820FA
:10035000B12050085802031DB12951085902031950
:100360009A29031CB429B9295008D8005108D9008A
:100370009A29150A0F39950003104E0CB33C580208
:100380000318DE29150A0F390319DE29150A0F395A
:1003900095003820B12050085802031DD329510878
:1003A00059020319BC29031CD629DB295008D8009F
:1003B0005108D900BC2915030F3995000800B12058
:1003C00003104E0CB33C5002031CEF29150A0F39E1
:1003D0000319EF29150A0F3995003820DF29080085
:1003E0002608A7006B200D30A5005827A60108009D
:1003F0008C1EFB295027851309001922AB0803190D
:10040000182ACC30DA002D224430DA002D223C208C
:100410001922AB080319182ACC30DA002D22BE307D
:10042000DA002D223C225A08DC003C225A08DD006A
:1004300008008630840080108610422080143F20FF
:100440002830AB00861C272AAB0B222A2B2A8618C1
:100450002B2AAB0B272A422008000830AA0086303E
:10046000840080108610DA0C031880143F203F208F
:100470008014AA0B2F2A08000830AA0086308400B6
:1004800080108610000080140000000000000000B2
:100490000000000000000000000000000314861CA3
:1004A0000310DA0C0A30AB008618592AAB0B542A19
:1004B0005B2AAA0B3E2A08008313831203138F3092
:1004C0008400603080049B3084007F308000853061
:1004D00084007F30800086308400BE3080009F30F2
:1004E00084004030800041309F00863084002430FA
:1004F0008004983084002430800090309800993037
:1005000084000C30800004309200923084000F3060
:1005100080000F3095003F3097008C3084002030F1
:10052000800006178513D801D901DA01DB01DC014F
:10053000DD01BB01A6010B178B173C200D30A50078
:1005400058275827B330A7006B200D30A500582737
:100550000130BA002608031DF021FD213C20B12006
:100560000D30A500582706173C2006133C20BA0B77
:10057000BF2A3B08031DBF2A95210A30BA0000009C
:040580003121AA2A51
:100940008200483465346C346C346F3420340034A5
:1009500072346F346F3474340D34003473346F3444
:100960006C34613472340D3400346534633468346B
:100970006F342034603464346134743465346034EA
:100980002034003420343E343E342F3474346D34FB
:1009900070342F3476342E347434783474340D3407
:1009A00000346F346B34613479340D340034663480
:0A09B000613469346C340D340034F6
:100E00008313831203138F308400603080049B307F
:100E100084007F308000853084007F308000863001
:100E20008400BE3080009F3084004030800041301C
:100E30009F00863084002430800498308400243061
:100E4000800090309800993084000C30800004308D
:100E50009200923084000F3080000F3095003F30B8
:100E6000970006178513D801D901DA01DB01DC01EF
:100E7000DD013C2008006430A100FA30A000000031
:100E8000A00B3F2FA10B3D2F080006143B27061097
:100E90003B270800061C4E2F06104F2F0614080093
:100EA0008C1E502F1A08A600981818121816080041
:100EB0000C1E582F25089900080083120317790883
:100EC0008F0078088D00831603178C170C150C16ED
:100ED00055308D00AA308D008C14000000000C12DB
:100EE0000C11831203130800831603178C170C15BB
:100EF0000C12831203130430A00083120317790825
:100F00008F0078088D0083120313703084008312E1
:100F1000031700088C00840A00088E00840A8316D8
:100F2000031755308D00AA308D008C14000000008E
:100F3000831203178D0A83120313A00B872F8316C6
:100F400003170C118312031308007030840008305B
:100F5000AA005027A2080319A92F26088000840A96
:100F6000AA0BA92F703084000830AA000008A50041
:100F70005827840AAA0BB62F452708000D30A50074
:100F800058275827A301AB013F30AA005027A208D9
:100F9000031DD02FAB0BC62F4A27AA0BC62FDF2F5E
:100FA0002608A5005827A308031DDB2F2608613C4F
:100FB0000319A30AC62F26082B3C031DAA0108000B
:100FC0000027BE27AA08031920280D30A50058279E
:100FD000F9012030F80078081F3903195D27A5278B
:100FE00074277C30A50058270430F807031DEB2F29
:0C0FF000F90A7908063C031DEB2F2028AD
:02400E00103F61
:02401000FC3F73
:00000001FF
